:020000040800F2
:1000000000800020C1140008E5050008F105000883
:10001000F7050008FD0500080306000800000000C1
:1000200000000000000000000000000009060008B9
:100030001506000800000000210600082D06000833
:100040000915000809150008091500080915000818
:100050000915000809150008C90600080915000857
:1000600009150008091500080915000809150008F8
:1000700009150008091500080915000809150008E8
:1000800009150008091500080915000809150008D8
:1000900009150008091500080915000809150008C8
:1000A00009150008091500080915000809150008B8
:1000B00009150008091500080915000809150008A8
:1000C0000915000809150008091500080915000898
:1000D0000915000809150008091500080915000888
:1000E000091500080915000809150008000000009E
:1000F0000000000000000000000000000000000000
:1001000000000000091500080915000800000000A3
:100110000915000809150008000000000000000093
:100120000915000809150008091500080915000837
:1001300000000000000000000000000000000000BF
:100140000000000000000000000000000915000889
:100150000000000000000000091500080915000853
:100160000000000000000000000000000915000869
:1001700010B5054C237833B9044B13B10448AFF3E1
:1001800000800123237010BDB40000200000000097
:10019000142C000808B5034B1BB103490348AFF307
:1001A000008008BD00000000B8000020142C0008EA
:1001B00053B94AB9002908BF00281CBF4FF0FF31CE
:1001C0004FF0FF3000F074B9ADF1080C6DE904CECA
:1001D00000F006F8DDF804E0DDE9022304B0704722
:1001E0002DE9F047089E0D4604468846002B4DD168
:1001F0008A42944668D9B2FA82F252B101FA02F305
:10020000C2F1200120FA01F10CFA02FC41EA0308D4
:1002100094404FEA1C45210CB8FBF5FE1FFA8CF701
:1002200005FB1E8341EA03430EFB07F199420BD9FC
:100230001CEB03030EF1FF3080F01E81994240F267
:100240001B81AEF1020E63445B1AA4B2B3FBF5F05E
:1002500005FB103344EA034400FB07F7A7420AD921
:100260001CEB040400F1FF3380F00881A74240F248
:10027000058164440238E41B40EA0E4000211EB1AF
:10028000D4400023C6E90043BDE8F0878B4208D97B
:10029000002E00F0EE800021C6E900050846BDE80A
:1002A000F087B3FA83F100294AD1AB4202D38242EC
:1002B00000F2F980841A65EB030301209846002EB2
:1002C000E2D0C6E90048DFE702B9FFDEB2FA82F207
:1002D000002A40F09180A1EB0C054FEA1C471FFA61
:1002E0008CFE0121B5FBF7F307FB1350250C45EA03
:1002F00000450EFB03F0A84208D91CEB050503F1ED
:10030000FF3802D2A84200F2CB8043462D1AA4B295
:10031000B5FBF7F007FB105544EA05440EFB00FE61
:10032000A64508D91CEB040400F1FF3502D2A6450E
:1003300000F2BB802846A4EB0E0440EA03409EE78F
:10034000C1F120078B4022FA07FC4CEA030C20FA8B
:1003500007F405FA01F31C43FD404FEA1C4900FA7B
:1003600001F3B5FBF9F8200C1FFA8CFE09FB1855B8
:1003700040EA054508FB0EF0A84202FA01F20BD94B
:100380001CEB050508F1FF3A80F08880A84240F296
:100390008580A8F1020865442D1AA4B2B5FBF9F0D6
:1003A00009FB105544EA054500FB0EFEAE4508D991
:1003B0001CEB050500F1FF346CD2AE456AD902385A
:1003C000654440EA0840A0FB0294A5EB0E05A54257
:1003D000C846A64656D353D05EB1B3EB080265EBD0
:1003E0000E0505FA07F722FA01F3CD401F43C6E9CF
:1003F00000750021BDE8F087C2F1200320FA03F167
:100400000CFA02FC25FA03F395400D434FEA1C4712
:100410001FFA8CFEB3FBF7F107FB11302B0C43EAFC
:10042000004301FB0EF0984204FA02F408D91CEBD9
:10043000030301F1FF382FD298422DD902396344CA
:100440001B1AADB2B3FBF7F007FB103345EA0345C7
:1004500000FB0EF3AB4208D91CEB050500F1FF3899
:1004600016D2AB4214D902386544ED1A40EA014174
:1004700038E73146304607E78646E5E61846FAE6AD
:100480004B45A9D2B9EB020864EB0C0E0138A3E787
:100490004046EAE7204694E74146D1E7D0467BE76D
:1004A000023B654432E7084609E76444023842E704
:1004B000704700BF000000000000000000000000C6
:1004C00001F0FF01102A2BDB10F0070F08D010F805
:1004D000013B013A8B422DD010F0070F42B3F6D109
:1004E000F0B441EA012141EA014122F007047FF022
:1004F00000070023F0E80256083C85EA010586EA79
:10050000010685FA47F5A3FA87F586FA47F6A5FAB4
:1005100087F68EB9EED1F0BC01F0FF0102F00702C0
:1005200032B110F8013B013A83EA010313B1F8D16B
:100530000020704701387047002D06BF354603384C
:10054000073815F0010F07D1013015F4807F02BF85
:10055000013015F4C03F0130F0BC0138704700BFD6
:1005600080B500AF1E4B1B681D4A43F4AA7313608D
:1005700000F0D0F80121002000F06AF900BF01204E
:1005800000F002F90346012BF9D12321002000F0ED
:10059000F3F90121022000F05BF900BF192000F0FF
:1005A000F3F80346012BF9D1082000F0A3F9042049
:1005B00000F0CCF9042000F0B3F9012000F0E4FBD6
:1005C000022000F087FA00BF00F09AFA0346022BDF
:1005D000FAD1002000F0D8FB00F0ECFF00BF80BD96
:1005E0000020024080B400AF00BFBD4680BC704711
:1005F00080B400AFFEE780B400AFFEE780B400AF88
:10060000FEE780B400AFFEE780B400AF00BFBD4698
:1006100080BC704780B400AF00BFBD4680BC70474F
:1006200080B400AF00BFBD4680BC704780B400AF4F
:1006300000BFBD4680BC704780B584B000AF0121CB
:100640004FF4C01000F0C7F80021002000F00CFDAE
:100650003B1D184600F0B2FB01237B7300233B7166
:100660000123BB6000233B733B1D184600F0BCFB1D
:10067000032000F03EFE00220021062000F018FEBC
:1006800000BF1037BD4680BD80B500AF052001F02A
:10069000C5F9012000F00CFC0121094800F0CAFC5A
:1006A0000346012B0AD1074B1B78042B03D1054BC2
:1006B00001221A7002E0034B04221A7000BF80BDB1
:1006C000000801400000002080B500AFFFF7DCFF0C
:1006D00000BF80BD80B500AFFFF742FF01F0EEF82C
:1006E000FFF7AAFF01F05CF8022001F04FF9084B78
:1006F0001B789BB21A46920013441A4691001A4680
:100700000B4613449B009BB2184601F087F9EBE7B8
:100710000000002080B400AF1A4A136843F00103C0
:10072000136000BF174B1B68C3F34003DBB2012B00
:10073000F8D1144A53686FF30103536000BF114BA3
:100740005B68C3F38103DBB2002BF8D10D4B1B6850
:100750000C4A23F0867323F480331360094B002284
:100760005A60084B41F61072DA62064B4FF4801261
:100770001A63044B4FF41F029A6000BFBD4680BC51
:10078000704700BF0010024080B485B000AF7860B1
:100790000023FB737B681B0C03F1804303F50433D8
:1007A0001A687B6803F01F03012101FA03F31A4062
:1007B0007B6803F01F03012101FA03F39A4202D080
:1007C0000023FB7301E00123FB73FB7B1846143706
:1007D000BD4680BC704780B483B000AF78600B46E4
:1007E000FB70FB78012B16D17B681B0C03F1804357
:1007F00003F5043319687B6803F01F0301229A4054
:100800007B681B0C03F1804303F50433184641EA6F
:100810000203036017E07B681B0C03F1804303F5C0
:10082000043319687B6803F01F03012202FA03F303
:10083000DA437B681B0C03F1804303F5043318464D
:1008400001EA0203036000BF0C37BD4680BC70475D
:1008500080B483B000AF03460A46FB711346BB71F8
:10086000FB79042B3ED801A252F823F0810800083E
:1008700095080008A9080008BD080008D10800086C
:100880001B4ABB7903F00103D9B2136861F300037B
:10089000136028E0164ABB7903F00103D9B213684C
:1008A00061F3104313601EE0114ABB7903F00103AA
:1008B000D9B2136861F31863136014E00C4ABB7972
:1008C00003F00103D9B2136A61F3000313620AE073
:1008D000074ABB7903F00103D9B2536A61F30003FD
:1008E000536200E000BF00BF0C37BD4680BC7047BC
:1008F0000010024080B483B000AF0346FB71074A8A
:10090000FB7903F00F03D9B2536861F30713536007
:1009100000BF0C37BD4680BC704700BF00100240CE
:1009200080B483B000AF0346FB71074AFB7903F044
:100930000703D9B2536861F30A23536000BF0C3731
:10094000BD4680BC704700BF0010024080B483B039
:1009500000AF0346FB71074AFB7903F00703D9B2E6
:10096000536861F3CD23536000BF0C37BD4680BC94
:10097000704700BF0010024080B485B000AF03464E
:100980000A46FB711346BB710023FB600023FB7218
:10099000FB79002B07D1404A53686FF31043536033
:1009A0003E4BFB6016E03C4A536843F4803353608F
:1009B000FB79012B07D13A4BFB60374A53686FF341
:1009C0005143536006E0354BFB60334A536843F4B0
:1009D00000335360FB68334A934206D9FB68324ABE
:1009E000934202D80023FB7235E0FB682F4A934202
:1009F00006D9FB682E4A934202D80123FB722AE0F3
:100A0000FB682C4A934206D9FB682B4A934202D8D2
:100A10000223FB721FE0FB68284A934206D9FB6859
:100A2000274A934202D80323FB7214E0FB68254A4D
:100A3000934206D9FB68244A934202D80423FB72EE
:100A400009E0FB68214A934205D9FB68204A93429A
:100A500001D80523FB72104ABB7903F00F03D9B20A
:100A6000536861F395435360BB791B110A4A03F045
:100A70000303D9B2536861F35E735360064AFB7A8D
:100A800003F00703D9B2D36A61F31A63D36200BFDC
:100A90001437BD4680BC70470010024000093D007D
:100AA00000127A0060823B003F4B4C0080584F00A0
:100AB0000F5E5F00943577000F1B7F00101B7F00D7
:100AC0001FBCBE00286BEE002FD73D0130D73D0183
:100AD000D7E9DC0180B483B000AF0346FB71074A5D
:100AE000FB7903F00303D9B2536861F30103536048
:100AF00000BF0C37BD4680BC704700BF00100240ED
:100B000080B400AF044B5B68C3F38103DBB21846CB
:100B1000BD4680BC704700BF001002402DE9B04FB9
:100B20008EB000AFF86000237B630023FB620023DC
:100B3000BB6200237B6200233B6200233B630023F4
:100B4000FB610023BB6100237B61FFF7D9FF0346F4
:100B5000FB74FB7C022B21D0022B00F3AE80002B18
:100B600002D0012B16D0A8E07F4B5B6DC3F340236E
:100B7000DBB2002B0AD07C4B1B6BC3F34063DBB2B0
:100B8000002B03D0FB68794A1A609AE0FB68784A28
:100B90001A6096E0FB68764A1A6092E0724B5B68D6
:100BA000C3F30043DBB2BB626F4BDB6AC3F3C073BA
:100BB000DBB2002B3AD16C4B5B68C3F38343DBB2EF
:100BC0007B63694B5B68C3F34173DBB2FB62FB6A17
:100BD000002B02D17B6B0F2B06D1FB6A1A017B6BBA
:100BE000134401337B6302E07B6B02337B63BB6A9C
:100BF000002B06D17B6B5F4A03FB02F2FB681A6095
:100C00005FE0594B5B68C3F34043DBB2002B06D077
:100C10007B6B584A03FB02F2FB681A6051E07B6B66
:100C2000534A03FB02F2FB681A604AE04E4BDB6A50
:100C3000C3F30313DBB2FB614B4BDB6AC3F3082343
:100C40009BB2BB61484BDB6AC3F30203DBB27B613F
:100C5000BB6A002B02D1474B3B630BE0424B5B6806
:100C6000C3F34043DBB2002B02D0424B3B6301E0B5
:100C70003F4B3B633B6B00229A469346BB69002285
:100C80009846914608FB0BF20AFB09F31344AAFBB2
:100C900008452B441D46FA697B6902FA03F30022DA
:100CA0003B607A60D7E9002320462946FFF780FAA7
:100CB00002460B46FB681A6003E0FB682C4A1A6088
:100CC00000BF294B5B68C3F30313DBB27B622A4A84
:100CD0007B6A13441B783B62FB681A683B6ADA4004
:100CE000FB685A60204B5B68C3F30223DBB27B6274
:100CF000224A7B6A13441B783B62FB685A683B6A52
:100D0000DA40FB68DA60184B5B68C3F3C223DBB2DE
:100D10007B621B4A7B6A13441B783B62FB685A6800
:100D20003B6ADA40FB689A600F4B5B68C3F3007361
:100D3000DBB27B627B6A9B000B4A5268C2F3813252
:100D4000D2B213437B620F4A7B6A13441B783B6227
:100D5000FB689A683B6AB2FBF3F2FB681A6100BF5A
:100D60003837BD46BDE8B08F00100240006CDC0291
:100D700000127A0000093D002C2C00083C2C0008D1
:100D8000442C00084C2C000880B483B000AF03460C
:100D9000FB71FB79012B05D1074A536D43F03003FA
:100DA000536504E0044A536D6FF30513536500BFA8
:100DB0000C37BD4680BC70470010024080B483B041
:100DC00000AF78607B6800225A727B6800225A600C
:100DD0007B6801221A727B6801221A7000BF0C37EF
:100DE000BD4680BC7047000080B485B000AF78601D
:100DF0000023FB607B685B68FB602C4B1A68FB6818
:100E0000DB432A4913400B60284B5A68FB68DB43DD
:100E1000264913404B607B685B7A002B40D07B688F
:100E20001B78002B06D1214B1A682049FB6813431D
:100E30000B6005E01D4B5A681C49FB6813434B606F
:100E40001A4B9A68FB68DB43184913408B60174BB9
:100E5000DA68FB68DB4315491340CB607B681B7A7B
:100E6000002B06D1114B9A681049FB6813438B6025
:100E700016E07B681B7A012B06D10C4BDA680B4914
:100E8000FB681343CB600BE0084B9A680749FB688B
:100E900013438B60054BDA680449FB681343CB604E
:100EA00000BF1437BD4680BC704700BF000401403E
:100EB00080B483B000AF7860034A7B68536100BFA1
:100EC0000C37BD4680BC70470004014080B485B03B
:100ED00000AF786039603B681B683B813B689B7959
:100EE000032B02D100237B8130E03B689B79002BF0
:100EF00015D13B685B799BB203F00F037B813B68A4
:100F00005B79182B03D13A897B681A611EE03B6834
:100F10005B79282B1AD13A897B685A6116E03B68C5
:100F20009B791BB203F008031AB23B681B791BB212
:100F300003F004031BB213431AB23B68DB791BB204
:100F400003F003031BB213431BB27B813B89DBB26B
:100F5000002B25D00023FB601FE03A89FB6842FA92
:100F600003F303F00103002B14D07B681B68FA68BD
:100F700092000F2101FA02F2D2431A407B681A60F4
:100F80007B681B687989FA68920001FA02F21A43B9
:100F90007B681A60FB680133FB60FB68072BDCD9B8
:100FA0003B89FF2B28D93B891B0A3B810023FB602F
:100FB0001FE03A89FB6842FA03F303F00103002BB8
:100FC00014D07B685B68FA6892000F2101FA02F284
:100FD000D2431A407B685A607B685B687989FA68FB
:100FE000920001FA02F21A437B685A60FB680133EF
:100FF000FB60FB68072BDCD900BF1437BD4680BC03
:10100000704780B483B000AF78607B684FF6FF72A2
:101010001A607B6800229A717B6800221A717B68D3
:1010200004225A717B680122DA7100BF0C37BD4679
:1010300080BC704780B485B000AF78600B467B8081
:101040000023FB737A8879887B689B680B409A42FF
:1010500002D00023FB7301E00123FB73FB7B1846E6
:101060001437BD4680BC704780B485B000AF0346DE
:101070000A46FB711346BB710023FB60BB7903F08A
:1010800003039B000F2202FA03F3FB60BB799B086A
:10109000DBB2032B5AD801A252F823F0AD1000089E
:1010A000D5100008FD100008251100082A4B9A6889
:1010B000FB68DB43284913408B60274B9A68F9791A
:1010C000BB7903F003039B0001FA03F322491343A6
:1010D0008B603CE0204BDA68FB68DB431E49134021
:1010E000CB601D4BDA68F979BB7903F003039B00F1
:1010F00001FA03F318491343CB6028E0164B1A6931
:10110000FB68DB43144913400B61134B1A69F979EF
:10111000BB7903F003039B0001FA03F30E49134369
:101120000B6114E00C4B5A69FB68DB430A4913401E
:101130004B61094B5A69F979BB7903F003039B00B2
:1011400001FA03F3044913434B6100E000BF00BF01
:101150001437BD4680BC70470000014080B485B0A4
:1011600000AF78607B6803F00703FB600C4BDB6823
:10117000BB60BA684FF6FF031340BB60FB681A02FE
:10118000BB68134343F0BF6343F40033BB60044ABE
:10119000BB68D36000BF1437BD4680BC704700BF3A
:1011A00000ED00E080B400AF044BDB681B0A03F0E5
:1011B00007031846BD4680BC704700BF00ED00E045
:1011C00080B483B000AF0346FB7197F90730002B62
:1011D0000BDBFB7903F01F02064997F907305B0927
:1011E000012000FA02F241F8232000BF0C37BD466F
:1011F00080BC704700E100E080B483B000AF0346DC
:101200003960FB7197F90730002B0ADB3B68DAB2D3
:101210000C4997F907301201D2B20B4483F800232E
:101220000AE03B68DAB20849FB7903F00F03043B9C
:101230001201D2B20B441A7600BF0C37BD4680BCF7
:10124000704700BF00E100E000ED00E080B489B02D
:1012500000AFF860B9607A60FB6803F00703FB61D8
:10126000FB69C3F10703042B28BF0423BB61FB699F
:101270000433062B02D9FB69033B00E000237B61AA
:101280004FF0FF32BB6902FA03F3DA43BB681A403E
:101290007B699A404FF0FF317B6901FA03F3D94330
:1012A0007B680B40134318462437BD4680BC70470B
:1012B00080B586B000AF0346B9607A60FB73002347
:1012C0007B61FFF76FFF03467A68B9681846FFF73E
:1012D000BDFF786197F90F3079691846FFF78CFFE9
:1012E00097F90F301846FFF76BFF00BF1837BD4660
:1012F00080BD80B582B000AF0346FB71FB79184614
:10130000FFF72CFF00BF0837BD4680BD80B483B017
:1013100000AF0346FB71FB79042B06D1084B1B6819
:10132000074A43F00403136005E0054B1B68044AB9
:1013300023F00403136000BF0C37BD4680BC704728
:1013400010E000E080B58CB000AFF860B9601146E5
:101350001A460B46FB711346BB7107F1140318467E
:10136000FFF7DCFBFB68244A934202D1FB69FB6276
:1013700001E03B6AFB62FA6A13469B0013445B0080
:101380001A46BB68B2FBF3F3BB62B96A1B4BA3FB03
:101390000123DA0813469B0013445B00CA1A042A8F
:1013A00006D8BB6A154AA2FB0323DB08BB6206E032
:1013B000BB6A124AA2FB0323DB080133BB62BB6A90
:1013C00099B2FA68936861F30F039360FB7903F0B5
:1013D0000103D9B2FA68D36861F30C33D360BB79E7
:1013E00003F00303D9B2FA68136961F30D33136193
:1013F00000BF3037BD4680BD00380140CDCCCCCCDD
:1014000080B483B000AF78600B46FB70FB7803F0CC
:101410000103D9B27A68D36861F34D33D36000BF5A
:101420000C37BD4680BC704780B483B000AF786095
:101430000B46FB70FB7803F00103D9B27A68D368DE
:1014400061F3C303D36000BF0C37BD4680BC704757
:1014500080B483B000AF78600B46FB70FB7803F07C
:101460000103D9B27A68D36861F38203D36000BF05
:101470000C37BD4680BC704780B483B000AF786045
:101480000B467B807B88C3F308027B685A6000BFF1
:101490000C37BD4680BC704780B483B000AF786025
:1014A00039607B681A683B681340002B01D0012328
:1014B00000E0002318460C37BD4680BC7047000092
:1014C000002103E00B4B5B58435004310A480B4B9F
:1014D00042189A42F6D30A4A02E0002342F8043B3B
:1014E000084B9A42F9D300F011F800F035FBFFF7F2
:1014F000F1F87047342D000800000020B4000020EF
:10150000B4000020EC000020FEE7000080B400AF33
:10151000254AD36943F08053D361244B1B78DBB257
:10152000224A43F00403DBB213701F4AD3696FF3FE
:101530001C73D3611C4A136843F00103136000BF9E
:10154000194B1B68C3F34003DBB2012BF8D1164AD9
:1015500053686FF30103536000BF134B5B68C3F321
:101560008103DBB2002BF8D10F4B1B680E4A23F02E
:10157000867323F4803313600B4B00225A600A4BAE
:1015800041F61072DA62084B4FF480121A63064B70
:101590004FF41F029A60064B4FF000629A6000BF42
:1015A000BD4680BC704700BF001002405070004034
:1015B00000ED00E02DE9B04F8CB000AF0023FB62DE
:1015C00000237B6200233B620023FB610023BB619D
:1015D0000023BB6200237B6100233B610023FB608F
:1015E000FFF78EFA0346FB72FB7A022B21D0022B07
:1015F00000F3AE80002B02D0012B16D0A8E0624B86
:101600005B6DC3F34023DBB2002B0AD05E4B1B6B38
:10161000C3F34063DBB2002B03D05C4B5C4A1A601F
:101620009AE05A4B5B4A1A6096E0584B594A1A6046
:1016300092E0554B5B68C3F30043DBB23B62524B15
:10164000DB6AC3F3C073DBB2002B3AD14E4B5B684D
:10165000C3F38343DBB2FB624B4B5B68C3F3417361
:10166000DBB27B627B6A002B02D1FB6A0F2B06D1B7
:101670007B6A1A01FB6A13440133FB6202E0FB6AD6
:101680000233FB623B6A002B06D1FB6A424A02FB33
:1016900003F33E4A13605FE03B4B5B68C3F3404398
:1016A000DBB2002B06D0FB6A3B4A02FB03F3374A4E
:1016B000136051E0FB6A374A02FB03F3334A1360BD
:1016C0004AE0314BDB6AC3F30313DBB27B612E4B81
:1016D000DB6AC3F308239BB23B612B4BDB6AC3F38A
:1016E0000203DBB2FB603B6A002B02D12A4BBB62D8
:1016F0000BE0254B5B68C3F34043DBB2002B02D009
:10170000254BBB6201E0234BBB62BB6A00229A46B9
:1017100093463B6900229846914608FB0BF20AFB70
:1017200009F31344AAFB08452B441D467A69FB685C
:1017300002FA03F300223B607A60D7E900232046D7
:101740002946FEF735FD02460B46104B1A6003E0B2
:101750000E4B104A1A6000BF0B4B5B68C3F30313B8
:10176000DBB2FB610D4AFB6913441B78BB61074B7D
:101770001A68BB6922FA03F3044A136000BF3037CA
:10178000BD46BDE8B08F00BF00100240040000203D
:10179000006CDC0200127A0000093D00542C0008A5
:1017A00080B500AF064A0749074800F001FA07492B
:1017B000074800F0FDF9074800F080FA00BF80BD3F
:1017C0002800002030000020642C00084400002085
:1017D000782C0008802C000880B582B000AF7860BB
:1017E00000BF80210848FFF757FE0346002BF8D0C2
:1017F0007B689BB219460448FFF73EFE7B6818469B
:101800000837BD4680BD00BF0048004080B586B0A7
:1018100000AFF860B9607A6000237B6109E0BB68C3
:101820005A1CBA601B781846FFF7D6FF7B69013354
:101830007B617A697B689A42F1DB00BF18461837F2
:10184000BD4680BD80B584B000AF786001211748E7
:10185000FEF7C1FF01211648FEF7BDFF07F108039F
:101860001846FFF7CEFB0123FB7300233B730823CD
:10187000BB734FF48063BB6004237B7307F10803E1
:1018800019460C48FFF722FB0023002279680A481A
:10189000FFF758FD01210848FFF7C6FD0121064862
:1018A000FFF7AEFD00BF1037BD4680BD12001C0023
:1018B00003001800000C01400048004080B500AF54
:1018C00000F08CF8022000F00BF8022000F03CF849
:1018D0004FF4E130FFF7B6FF00F0ECF800BF80BD39
:1018E00080B584B000AF0346FB71FB79134A52F810
:1018F000233001211846FEF76EFF07F10803184652
:10190000FFF77FFB0123FB7300233B731023BB73A3
:10191000FB790B4A32F81330BB6004237B73FB79ED
:10192000084A52F8233007F1080211461846FFF71B
:10193000CDFA00BF1037BD4680BD00BF1C0000209F
:10194000140000200800002080B483B000AF0346DC
:10195000FB71FB79022B10D8FB790A4A32F813305D
:10196000002B0BD0FB79074A32F81310FB79064A9B
:1019700052F823300A465A6100E000BF0C37BD46DA
:1019800080BC7047140000200800002080B483B0A1
:1019900000AF0346FB71FB79022B16D8FB790D4A89
:1019A00032F81330002B11D0FB790B4A52F8233058
:1019B000DA68FB79074931F813301846FB79064994
:1019C00051F823304240DA6000E000BF0C37BD46DA
:1019D00080BC7047140000200800002080B500AFD4
:1019E0000420FFF793FC094B1B68094AA2FB032361
:1019F0009B0C084A1360074B1B684FF47A7202FB7A
:101A000003F3054A136000BF80BD00BF040000203F
:101A100083DE1B43D0000020D400002080B485B0BA
:101A200000AF0346FB800023FB6035E0FB88322BD0
:101A30000AD91E4B1B681E4A322101FB03F3536077
:101A4000FB88323BFB8008E0FB88184A1268184983
:101A500002FB03F34B600023FB80154B00229A60CE
:101A6000134B1B68124A43F001031360104B1B68B1
:101A7000FB60FB6803F00103002B04D0FB6803F458
:101A80008033002BF2D00A4B1B68094A23F0010374
:101A90001360074B00229A60FB88002BC6D100BF61
:101AA00000BF1437BD4680BC704700BFD400002083
:101AB00010E000E080B582B000AF01212248FEF7BF
:101AC0008AFE01212148FEF786FE3B461846FFF7B5
:101AD00098FA0123FB7100233B710823BB714FF47B
:101AE00000733B6004237B713B4619461848FFF79F
:101AF000EDF90123FB7100233B710023BB714FF40F
:101B000080633B6018237B713B4619461048FFF702
:101B1000DDF90320FFF7EDFB002300224FF4E13154
:101B20000C48FFF70FFC01210A48FFF77DFC01215B
:101B30000848FFF78DFC01210648FFF761FC00BF54
:101B40000837BD4680BD00BF0E0018000200180017
:101B5000000801400038014070B50D4D0D4C641B6C
:101B6000A4100026A64209D10B4D0C4C01F052F8EE
:101B7000641BA4100026A64205D170BD55F8043B95
:101B800098470136EEE755F8043B98470136F2E7EF
:101B90002C2D00082C2D00082C2D0008302D0008BD
:101BA00002440346934200D1704703F8011BF9E752
:101BB0000FB40A4B13B51C6824B1A36913B92046AE
:101BC00000F05AFA05AB049AA1680193204600F090
:101BD0005FFC02B0BDE8104004B070475000002028
:101BE00070B50E46054618B183690BB900F044FA8A
:101BF000AB69AC6813B9284600F03EFA2C4B9C4206
:101C000020D16C68636EDB0705D4A389980502D4E4
:101C1000A06D00F0CFFAA38919071DD52369DBB1A8
:101C2000013EA36816F8011F013BA36039BB002BDE
:101C300038DA22460A21284600F048F8013011D04F
:101C40000A2511E01B4B9C4201D1AC68DAE71A4B24
:101C50009C4208BFEC68D5E72146284600F088F88A
:101C60000028DDD04FF0FF35636EDA0705D4A38975
:101C70009B0502D4A06D00F09EFA284670BD002B93
:101C800004DAA2699A4206DC0A2904D023685A1CA5
:101C900022601970C5E72246284600F017F8013087
:101CA000BFD1DFE723680A255A1C22601D70DBE7DD
:101CB000B02C0008D02C0008902C0008024B0146E4
:101CC0001868FFF78DBF00BF50000020F8B50E4622
:101CD0001446054618B183690BB900F0CDF9214BC4
:101CE0009C422BD16C68A369A360A3891A072FD5E6
:101CF00023696BB323692068C01A6369F6B2834213
:101D0000374604DC2146284600F022F930BBA368A0
:101D1000013BA36023685A1C22601E706369013076
:101D2000834204D0A389DB0706D50A2E04D12146BD
:101D3000284600F00DF988B93846F8BD0A4B9C4298
:101D400001D1AC68CFE7094B9C4208BFEC68CAE7F9
:101D50002146284600F00CF80028CBD04FF0FF3782
:101D6000EAE700BFB02C0008D02C0008902C000837
:101D7000324B70B51D6806460C4625B1AB6913B9E8
:101D8000284600F079F92E4B9C420FD16C68A3894C
:101D9000B4F90C2019072CD4DD0611D409233360C3
:101DA00042F04003A3814FF0FF303EE0254B9C42C0
:101DB00001D1AC68EBE7244B9C4208BFEC68E6E736
:101DC000580712D5616B41B104F14403994202D026
:101DD000304600F057FA00236363A38923F02403FD
:101DE000A3810023636023692360A38943F0080370
:101DF000A38123694BB9A38903F42073B3F5007F52
:101E000003D02146304600F0FDF9A089B4F90C203A
:101E100010F001030AD00023A36063695B42A36151
:101E2000236943B910F08000BAD170BD810758BF53
:101E30006369A360F4E70020F7E700BF50000020CB
:101E4000B02C0008D02C0008902C00088A89F8B526
:101E5000054610070C4657D44B68002B04DC0B6C6E
:101E6000002B01DC0020F8BDE66A002EFAD000232A
:101E700012F480522F682B6032D0606DA3895A070C
:101E800005D56368C01A636B0BB1236CC01A0023BD
:101E90000246E66A216A2846B047431CA38906D158
:101EA00029681D292CD8294ACA40D60728D50022DE
:101EB0006260D9042269226004D5421C01D12B68DA
:101EC00003B96065616B2F600029CBD004F1440336
:101ED000994202D0284600F0D5F900206063C2E79D
:101EE000216A01232846B047411CC7D12B68002B2B
:101EF000C4D01D2B01D0162B01D12F60B2E7A389CE
:101F000043F04003A381AEE70F69002FAAD09307E7
:101F10000E6808BF4B690F6018BF0023F61B8B606B
:101F2000002E9FDD216AD4F828C033463A46284661
:101F3000E047002806DCA38943F04003A3814FF06B
:101F4000FF3090E70744361AEAE700BF010040205F
:101F500038B50B6905460C4613B90025284638BD2F
:101F600018B183690BB900F087F8144B9C421BD160
:101F70006C68B4F90C30002BEFD0626ED00704D43B
:101F8000990502D4A06D00F015F928462146FFF707
:101F90005DFF636EDA070546E0D4A3899B05DDD4B7
:101FA000A06D00F008F9D9E7054B9C4201D1AC685F
:101FB000DFE7044B9C4208BFEC68DAE7B02C00086E
:101FC000D02C0008902C0008002310B50446C0E96E
:101FD0000033C0E90433836081814366C281836139
:101FE000194608225C30FFF7DBFD054B6362054BA9
:101FF000A362054BE362054B2462236310BD00BF5F
:10200000392A00085B2A0008932A0008B72A00082A
:10201000014900F0AFB800BF511F000870B5682239
:102020004D1E55430E4605F1740100F095F9044626
:1020300040B10021C0E900160C30A06005F1680233
:10204000FFF7AEFD204670BD014800F0B3B800BFF9
:10205000D9000020014800F0AEB800BFD900002030
:10206000014800F0A7B800BFDA000020014800F0E6
:10207000A2B800BFDA00002010B50446FFF7F0FF59
:10208000A3691BB1BDE81040FFF7F0BFC4E91233EC
:102090002365134B134A1B68A262A34204BF0123AA
:1020A000A361204600F020F86060204600F01CF894
:1020B000A060204600F018F80022E060042160686B
:1020C000FFF782FFA06801220921FFF77DFFE0688A
:1020D00002221221FFF778FF0123A361D2E700BF9C
:1020E0008C2C000811200008F8B50746FFF7ACFF5C
:1020F0001E4B1E68B36913B93046FFF7BDFF483663
:10210000D6E90134013B03D533680BB33668F7E7F2
:10211000B4F90C50D5B9164BE36004F1580065666C
:1021200000F047F8FFF796FFC4E90155C4E90455EC
:102130002560A5610822294604F15C00FFF730FD07
:10214000C4E90D55C4E912552046F8BD6834D9E7F5
:1021500004213846FFF762FF044630600028D5D1DD
:10216000FFF778FF0C233B60EEE700BF8C2C0008E4
:102170000100FFFF2DE9F8430646884600F14804B8
:102180000027D4E90195B9F1010905D52468002C8F
:10219000F7D13846BDE8F883AB89012B07D9B5F9EB
:1021A0000E30013303D029463046C0470743683517
:1021B000E9E770477047704770B50E46B1F90E10E9
:1021C000002996B014461D4608DAB6F90C300022F4
:1021D0002A601A0610D44FF480630EE06A4600F0BD
:1021E00091FC0028F1DB019A02F47042A2F5005341
:1021F0005A425A412A60EEE740230020236016B07D
:1022000070BD00008B8973B59D0706460C4607D547
:1022100004F14703236023610123636102B070BDB1
:1022200001AB6A46FFF7C8FF00990546304600F04B
:1022300093F848B9B4F90C309A05EFD423F00303AE
:1022400043F00203A381E3E70D4BB362A38920604F
:1022500043F08003A381009B6361019B20615BB11C
:10226000B4F90E10304600F05FFC28B1A38923F0CA
:10227000030343F00103A381A0890543A581CDE7B2
:102280001120000838B50546002941D051F8043C1A
:102290000C1F002BB8BFE41800F068FC1D4A13683F
:1022A00033B9636014602846BDE8384000F064BC70
:1022B000A34208D9206821188B4201BF19685B68C6
:1022C00009182160EDE71A465B680BB1A342FAD901
:1022D00011685018A0420BD1206801445018834265
:1022E0001160E0D118685B68536001441160DAE75F
:1022F00002D90C232B60D6E7206821188B4204BF3B
:1023000019685B68636004BF091821605460CAE7FC
:1023100038BD00BFDC00002070B50E4E0C463168A1
:10232000054611B900F078FB30602146284600F0E0
:1023300073FB431C0AD0C41C24F00304A04207D042
:10234000211A284600F068FB013001D14FF0FF341C
:10235000204670BDE00000202DE9F041CD1C25F0A5
:10236000030508350C2D38BF0C25002D074601DB71
:10237000A94205D90C233B6000263046BDE8F08118
:102380002E4E00F0F3FB33681C4634BB294638461A
:10239000FFF7C2FF431C04464DD134682646002E89
:1023A00040D123683146384604EB030800F034FB83
:1023B00080453AD1216803356D1A25F003050835AB
:1023C0000C2D38BF0C2529463846FFF7A5FF0130F4
:1023D0002BD023682B4423600EE02268521B1ED4AE
:1023E0000B2A16D96119A342256018BF596063688A
:1023F00008BF316062514B60384604F10B0600F0B3
:10240000BBFB26F00706231DF21AB6D09B1BA35078
:10241000B3E76268A3420CBF32605A60ECE7234620
:102420006468B2E734467668B9E70C233B60384607
:1024300000F0A2FBA1E72560DEE700BFDC00002082
:102440009368013B002B10B4936007DA9469A342B0
:1024500001DB0A2902D110BCFFF738BC1368581CF5
:1024600010601970084610BC7047F8B506460F4654
:102470001446D518AC4201D1002007E014F8011B26
:102480003A463046FFF7DCFF431CF3D1F8BD0000AD
:102490002DE9F04F0D469DB014469846064618B1FA
:1024A00083690BB9FFF7E8FD894B9D421BD1756825
:1024B0006B6ED90705D4AB899A0502D4A86DFFF7D6
:1024C00079FEAB891B0701D52B69EBB9294630464C
:1024D000FFF74EFCC0B16B6EDC070ED54FF0FF303E
:1024E0001DB0BDE8F08F7B4B9D4201D1B568DFE7A1
:1024F000794B9D4208BFF568DAE7AB899805EDD4C2
:10250000A86DFFF758FEE9E70023099320238DF813
:102510002930CDF80C803023DFF8C0818DF82A30C7
:102520004FF0010923469A4613F8012B0AB1252AD8
:10253000F9D1BAEB040B0BD05B4622462946304654
:10254000FFF793FF013000F0AA80099A5A440992DC
:102550009AF80030002B00F0A28000234FF0FF32E9
:10256000CDE905230AF1010A049307938DF853304E
:102570001A935446052214F8011B5848FDF7A0FF92
:10258000049AD8B9D10644BF20238DF853301307DD
:1025900044BF2B238DF853309AF800302A2B15D0E6
:1025A000079A544600204FF00A0C214611F8013BCF
:1025B000303B092B4ED9B0B1079214E0A0EB0803D1
:1025C00009FA03F313430493A246D2E7039B191DB0
:1025D0001B680391002BBBBF5B4242F002020793D2
:1025E0000793B8BF049223782E2B0CD163782A2B43
:1025F00035D1039B1A1D1B680392002BB8BF4FF007
:10260000FF3302340593DFF8D8A021780322504627
:10261000FDF756FF40B14023A0EB0A0003FA00F09B
:10262000049B03430134049314F8011B2D488DF8D7
:1026300028100622FDF744FF00283FD02A4B1BBB81
:10264000039B073323F0070308330393099B3B44A1
:10265000099367E70CFB02320C460120A5E7002333
:102660000134059319464FF00A0C204610F8012B4F
:10267000303A092A03D9002BC5D00591C3E70CFBDA
:10268000012104460123F0E703AB00932A46174BD0
:1026900004A93046AFF300800746781CD6D16B6E94
:1026A000D90705D4AB899A0502D4A86DFFF783FD3D
:1026B000AB895B063FF512AF099811E703AB0093B6
:1026C0002A460A4B04A9304600F080F8E4E700BF30
:1026D000B02C0008D02C0008902C0008F02C00082A
:1026E000F62C0008FA2C0008000000006B240008FB
:1026F0002DE9F047164699468A680B69DDF8208077
:102700009342B8BF1346336091F8432007460C4606
:102710000AB1013333602368990642BF336802333C
:102720003360256815F0060506D104F1190AE3683F
:1027300032689B1AAB4226DC94F84320131E2268B1
:1027400018BF012392062BD404F1430249463846B0
:10275000C04701301ED02368E568326803F00603E5
:10276000042B08BFAD1AA36822690CBF25EAE575E2
:1027700000259342C4BF9B1AED1800261A34B542B7
:102780001AD1002008E00123524649463846C04786
:10279000013003D14FF0FF30BDE8F0870135C6E7C7
:1027A000E1185A1C302081F84300224494F8451067
:1027B00082F843100233C7E70123224649463846D0
:1027C000C0470130E6D00136D9E700002DE9FF47C8
:1027D0000F7E0C9D782F914680460C469A4601F15B
:1027E000430207D8622F0AD8002F00F0D880582F54
:1027F00000F0A38004F1420584F842703AE0A7F1AA
:102800006303152BF6D801A151F823F065280008C1
:1028100079280008F5270008F5270008F5270008A3
:10282000F527000879280008F5270008F527000893
:10283000F5270008F527000885290008A9280008C1
:1028400067290008F5270008F5270008A7290008D0
:10285000F5270008A9280008F5270008F527000833
:102860006F2900082B681A1D1B682A6004F14205B5
:1028700084F842300123A3E020682968060601F1AC
:1028800004030AD50E682B60002E03DA2D2376424E
:1028900084F843305E480A2319E00E682B6010F07C
:1028A000400F18BF36B2EFE72B682068191D29606A
:1028B000010601D51E6802E04606FBD51E88544875
:1028C0006F2F0CBF08230A23002184F8431065688A
:1028D000A560002DA2BF216821F0040121600EB97E
:1028E000002D4DD01546B6FBF3F103FB1167C75D14
:1028F00005F8017D3746BB420E46F4D9082B0BD1B3
:102900002368DE0708D5236961689942DEBF30235A
:1029100005F8013C05F1FF35521B2261CDF800A0FE
:102920004B4603AA21464046FFF7E2FE01304CD158
:102930004FF0FF3004B0BDE8F087354881F84570AE
:102940002968236851F8046B29601D0614D5DF0738
:1029500044BF43F0200323601EB9236823F0200303
:1029600023601023B0E7236843F02003236078231B
:10297000284884F84530E3E7590648BFB6B2E6E791
:102980001546BBE72B6826686169181D2860350667
:102990001B6801D5196002E07006FBD51980002381
:1029A00023611546BAE72B681A1D2A601D68626804
:1029B00000212846FDF784FD08B1401B6060636874
:1029C0002361002384F84330A8E723692A46494657
:1029D0004046D0470130ABD023689B0713D4E06852
:1029E000039B9842B8BF1846A4E7012332464946E4
:1029F0004046D04701309BD00135E36803995B1A0C
:102A0000AB42F2DCEBE7002504F11906F5E700BF65
:102A1000012D0008122D000838B5064D002304468C
:102A200008462B6000F0E8F8431C02D12B6803B184
:102A3000236038BDE400002010B50C46B1F90E103B
:102A400000F0A0F80028ABBF636DA3891B1823F426
:102A50008053ACBF6365A38110BD2DE9F0411F46D3
:102A60008B89DB0505460C46164605D5B1F90E10D7
:102A70000223002200F068F8A389B4F90E1023F4B1
:102A80008053A38132463B462846BDE8F04100F022
:102A900017B810B50C46B1F90E1000F055F8431CEC
:102AA000A38915BF606523F4805343F48053A38149
:102AB00018BFA38110BDB1F90E1000F013B80000CB
:102AC00038B5074D04460846114600222A601A46CA
:102AD000FEF79CFE431C02D12B6803B1236038BD76
:102AE000E400002038B5064D0023044608462B605C
:102AF00000F05AF8431C02D12B6803B1236038BDA3
:102B0000E400002038B5074D00230446084611466E
:102B10002B6000F051F8431C02D12B6803B12360F5
:102B200038BD00BFE400002038B5064D0023044640
:102B300008462B6000F048F8431C02D12B6803B113
:102B4000236038BDE400002038B5074D0446084630
:102B5000114600222A601A4600F03EF8431C02D1BA
:102B60002B6803B1236038BDE40000200148FFF763
:102B700021BB00BFD80000200148FFF71CBB00BFED
:102B8000D800002038B5074D0446084611460022FB
:102B90002A601A4600F028F8431C02D12B6803B1C2
:102BA000236038BDE4000020024B58221A604FF029
:102BB000FF307047E4000020024B58221A604FF0AB
:102BC000FF307047E4000020024B58221A600020BA
:102BD000704700BFE4000020024B58221A604FF0FB
:102BE000FF307047E4000020024B58221A604FF07B
:102BF000FF307047E4000020044A05491368002BA9
:102C000008BF0B461844106018467047E8000020C3
:102C1000F0000020F8B500BFF8BC08BC9E46704725
:0C2C2000F8B500BFF8BC08BC9E46704729
:102C2C000000000000000000010203040607080970
:102C3C000000000001020304000000000102030474
:102C4C0002040608020C081000000000000000003E
:102C5C00010203040607080925732C204669726DCE
:102C6C0077617265207625730D0A000025730D0AB5
:102C7C000000000041543332463431350D00000061
:102C8C0054000020000000000000000000000000C4
:102C9C000000000000000000000000000000000028
:102CAC000000000000000000000000000000000018
:102CBC000000000000000000000000000000000008
:102CCC0000000000000000000000000000000000F8
:102CDC0000000000000000000000000000000000E8
:102CEC0000000000232D302B2000686C4C00656622
:102CFC006745464700303132333435363738394141
:102D0C004243444546003031323334353637383956
:082D1C0061626364656600005A
:082D2400BCD4FF7F0100000098
:042D2C009501000805
:042D30007101000825
:102D34000100000000127A00001001400010014060
:102D440000080140040008000010000004001800FE
:102D54000400180002001800312E302E310000004B
:102D6400424F4F544C4F414445525F4154333246D5
:102D740034313500323032332E30322E32380001C5
:102D84005400002000000000B02C0008D02C0008E3
:102D9400902C00080000000000000000000000006B
:102DA400000000000000000000000000000000001F
:102DB400000000000000000000000000000000000F
:102DC40000000000000000000000000000000000FF
:102DD40000000000000000000000000000000000EF
:042DE40000000000EB
:04000005080014C11A
:00000001FF
